:020000040800F2
:1000000028230020F5010008350F0008910E000894
:10001000310F0008710A00086D310008000000006F
:10002000000000000000000000000000592A000845
:10003000750A000800000000390F00085D2A00085A
:100040000F0200080F0200080F0200080F0200084C
:100050000F0200080F0200080F0200080F0200083C
:100060000F0200080F0200080F0200080F0200082C
:100070000F0200080F0200080F0200080F0200081C
:100080000F0200080F020008F90900080F0200081B
:100090000F0200080F0200080F0200080F020008FC
:1000A0006D2D0008A92D00080F0200080F0200089E
:1000B0000F020008F52F00080F0200080F020008C9
:1000C0000F0200080F0200080F0200080F020008CC
:1000D0000F020008D53000080F0200080F020008C8
:1000E000110E00080F0200080F0200080F0200089E
:1000F0000F0200080F0200080F02000800000000B5
:100100000F0200080F0200080F0200080F0200088B
:100110000F0200080F0200080F020008F92F000864
:100120000F0200080F0200080F0200080F0200086B
:100130000F0200080F0200080F0200080F0200085B
:100140000F0200080F0200080F0200080F0200084B
:100150000F0200080F020008000000000F02000854
:100160000F0200080F0200080F0200080F0200082B
:100170000F0200080F020008000000000F02000834
:100180000F0200080F0200080F0200080F0200080B
:100190000F0200080F02000800000000000000002D
:1001A000000000000000000000000000000000004F
:1001B0000F020008000000000F020008000000000D
:1001C000000000000000000000000000000000002F
:1001D0000000000000000000000000000F02000806
:1001E000DFF80CD000F0C4FB00480047B15600080F
:1001F000282300200648804706480047FEE7FEE720
:10020000FEE7FEE7FEE7FEE7FEE7FEE7FEE7FEE7C6
:10021000952B0008E101000840EA01039B0703D089
:1002200009E008C9121F08C0042AFAD203E011F835
:10023000013B00F8013B521EF9D27047D2B201E0F7
:1002400000F8012B491EFBD270470022F6E710B5DB
:1002500013460A4604461946FFF7F0FF204610BD34
:1002600010B54843044608F0D1F9002805D0002114
:10027000002C02D0641E0155FAE710BD2DE9FE4F97
:10028000804681EA0300C00F0C46009021F0004137
:1002900023F00045B8EB0200A94105D240462146B3
:1002A00090461C460B46024623F00040104347D0C0
:1002B000270DC7F30A00C3F30A510290401A0190B8
:1002C00040286BDAC3F3130040F4801B0098924679
:1002D00020B10023D2EB030A63EB0B0B01985946C4
:1002E000C0F14002504600F0F3F906460D46504674
:1002F0005946019A00F00BFA10EB08006141002406
:1003000087EA115284EAE7731A4340D0009A62B335
:10031000019A012A4FEA075215DC001B61EB02012A
:100320004FF0004202EA0752CDE90042001C41F5BD
:10033000801132462B4600F042FA03B0BDE8F08F40
:1003400040462146F9E7001B61EB0201001C41F524
:10035000801300185B412018A2F5001747EB03013A
:1003600040EAD570B6196D4111E06D084FEA3606C6
:1003700045EAC0754FEA0752001B61EB0201001C01
:1003800041F5801149084FEA3000001951413246C9
:100390002B4603B0BDE8F04F00F002BA00980122EE
:1003A00040000023D0EB020263EBE073009821468B
:1003B0004FEAE074B8EB000061EB0401E9E783F079
:1003C00000435BE781F0004158E72DE9FE4F81EAE9
:1003D000030404F0004421F0004100944FF0000BAE
:1003E00023F0004350EA01045ED052EA03045BD0DC
:1003F000C3F30A54C1F30A552C44A4F2F334019414
:10040000A0FB0254C1F3130141F48011C3F31303A1
:1004100043F4801301FB024400FB034E840A970A55
:1004200044EA815447EA8357A4FB076802958D0A82
:1004300005FB07854FEA932C04FB0C542705029D0E
:100440004FEA065847EA1637B5EB08056EEB070C7E
:10045000870E920E47EA811742EA8312A7FB020138
:10046000B6EB0B0164EB00042B0D43EA0C335E1872
:1004700044EB1C50DA465146E7FB0201C5F3130476
:100480004FEA0B3343EA14534FEA0432019C43EA28
:100490000603A4F10C040294009CCDE900B400F022
:1004A0008EF903B0BDE8F08F00200146F9E72DE991
:1004B000F04D81EA030404F0004B21F0004514469E
:1004C0004FF0000A23F0004150EA050220D054EA20
:1004D00001021DD0C5F30A570246C5F31303C1F349
:1004E0001300C1F30A5640F4801543F48013A7EBC0
:1004F0000608101BD64608F2FD3873EB050002D340
:1005000008F1010801E092185B41B8F1000F03DA2D
:1005100000200146BDE8F08D00204FF48011064612
:1005200084460EE0171B73EB050705D3121B63EB24
:10053000050306434CEA010C49084FEA30009218C3
:100540005B4150EA0107EDD152EA030012D082EA82
:10055000040083EA0501084305D0101BAB4106D215
:100560000122002306E000224FF0004302E06FF07A
:10057000010253101AEB06004CEB085110EB0A0075
:1005800041EB0B01BDE8F04D00F00AB930B5041E97
:1005900071F1000404DB4FF00044404264EB0101C0
:1005A000141E73F1000405DB1C464FF00043524259
:1005B00063EB0403101A8B4101D2012030BD0020EF
:1005C00030BD30B5041E71F1000404DB4FF000446F
:1005D000404264EB0101141E73F1000405DB1C466C
:1005E0004FF00043524263EB0403801A994101D259
:1005F000012030BD002030BD0EB5C10F80EAE07093
:100600000844CA07002140F233438DE80E000A4631
:100610000B4600F0D4F803B000BD0EB540F23341F4
:1006200002910021CDE900110A460B4600F0C7F8FF
:1006300003B000BD70B5C1F30A5201F000450024BB
:10064000C1F3130140F2FF3341F480119A4201DA01
:10065000002070BD40F233439A42A2F2334203DCE1
:10066000524200F044F800E090402C43F1D0404268
:1006700070BD00F0004230F000400AD0C10D01F51D
:100680006071C0F3160042EA0151C20840071143ED
:10069000704700200146704701F0004330B421F05C
:1006A000004150EA010206D00A0DA2F56072C1F3C2
:1006B0001301002A02DC30BC00207047440F44EADA
:1006C000C104C100E01830BC00EBC25000F031B8EA
:1006D000202A04DB203A00FA02F100207047914002
:1006E000C2F1200320FA03F3194390407047202AF7
:1006F00004DB203A21FA02F00021704721FA02F3CC
:10070000D040C2F120029140084319467047202A88
:1007100006DBCB17203A41FA02F043EAE07306E029
:1007200041FA02F3D040C2F1200291400843194639
:1007300070470029A8BF7047401C490008BF20F03F
:100740000100704710B4B0FA80FC00FA0CF050EAD7
:10075000010404BF10BC704749B1CCF1200421FA58
:1007600004F411FA0CF118BF012121430843A3EB53
:100770000C01CB1D4FEA00614FEA102042BF002060
:1007800010BC704700EBC35010440029A4BF10BC3C
:100790007047401C490008BF20F0010010BC7047A2
:1007A00010B5141E73F1000408DA401C41F1000179
:1007B00092185B411A4301D120F0010010BD2DE9D0
:1007C000F04D92469B4611B1B1FA81F202E0B0FAC7
:1007D00080F220329046FFF77BFF04460F4640EA46
:1007E0000A0041EA0B0153465A46084313D011460A
:1007F00053EA010019D0C8F140025046FFF777FFD5
:1008000005460E46504659464246FFF761FF0843EB
:1008100005D0012004E020463946BDE8F08D0020D7
:10082000054346EAE0762C4337430A986305E40A19
:10083000A0EB08000022FD0A44EA47540A3002D522
:1008400000200146E9E7010510196941DDE9084585
:1008500000196941BDE8F04DA2E770B521F00043F1
:1008600003430CD0C1F30A550024D5EB040564EB17
:100870000403D617AD1AB34102DB0020014670BD58
:10088000201841EB025170BD2DE9F041054621F0E1
:1008900000400C46284309D0C4F30A5040F23341CB
:1008A000884205DD28462146BDE8F0812846FBE761
:1008B00040F2FE31884210DC0CDB4FEA043040EAA3
:1008C000155050EA053105D0104804F000410143AD
:1008D0000020E9E700200146E6E7A0F23340464267
:1008E000C6F1400228462146FFF7F2FE0746884639
:1008F000284621463246FFF7FAFE43463A46FFF7BE
:100900004FFF3246BDE8F041FFF7E2BE0000F03F86
:1009100030B5041E71F1000404DB4FF00044404286
:1009200064EB0101141E73F1000405DB1C464FF05B
:100930000043524263EB04038B4208BF824230BD46
:1009400030B5041E71F1000404DB4FF00044404256
:1009500064EB0101141E73F1000405DB1C464FF02B
:100960000043524263EB0403994208BF904230BDFA
:100970001CB509480090094801900546009C06E016
:10098000E06840F0010394E8070098471034AC4257
:10099000F6D3FFF729FC0000E48A0008048B000866
:1009A00070B58C1810F8015B15F0070301D110F831
:1009B000013B2A1106D110F8012B03E010F8016B5E
:1009C00001F8016B5B1EF9D12B0705D40023521EE1
:1009D0000DD401F8013BFAE710F8013BCB1A921C49
:1009E00003E013F8015B01F8015B521EF9D5A14247
:1009F000D8D3002070BD000010B542F20004C4F24C
:100A000001042046012102F06FFC88B1204601213B
:100A100002F052FC40F22410C2F2000040F2C06129
:100A20000088C2F200010A8800F008001043088024
:100A30002046042102F044FC002808BF10BD2046D7
:100A4000042102F039FC40F2C260C2F200000078DA
:100A5000022800D110BD40F25C0040F20C51C2F2FD
:100A60000000C2F20001BDE8104003F007BB000027
:100A7000FEE700007047000010B50C2888BF10BDCD
:100A8000DFE800F02C074C4C4D0760134C404C4302
:100A9000700040F62C70C2F200000021017005F0D9
:100AA00013FFBDE8104005F095BA40F62C70C2F275
:100AB00000000024047005F007FF05F08BFA41F6F2
:100AC000D042C2F2000240F60000C4F202004FF42D
:100AD00000511470BDE8104004F0E8BD40F62C70E1
:100AE000C2F200000021017005F0EEFE05F072FA7E
:100AF00040F60000C4F202004FF40051BDE810407F
:100B000004F0D2BD05F066FA6FE005F05BF840F244
:100B1000D010C2F200000021A0F8421010BD40F237
:100B2000AC60C2F200000078411F012939D841F6BB
:100B3000C44141F2A440C2F20001C2F200000A68BE
:100B400000683BE040F62C70C2F200000024047004
:100B500005F0BAFE05F03EFA41F6D040C2F20000C0
:100B6000047010BD41F6D240C2F2000000210180A5
:100B700040F2AD60C2F20000017040F2AC6040F2A1
:100B80008812C2F20000C2F20002017040F2AE60B0
:100B9000D378C2F20000017083F00100D0701170B0
:100BA00010BD042819D140F25C01C2F2000141F2EB
:100BB000A440C98BC2F2000000680AB20021B2F161
:100BC000FF3FC8BF0121002807DCB0FA80F04009D0
:100BD000084002D103F092FF01E003F0BBFF40F2B6
:100BE0000C50C2F2000002F0F3FE05F075FE40F674
:100BF0002C70C2F200000121017010BD70B50C28EC
:100C000000F2FE80DFE810F00D003200FC00FC0076
:100C10008B00AF00FC00B700FC002700FC00760052
:100C20007A0041F6BC40C2F20000B0F90000002892
:100C300000F3A98041F23640C2F20000007800289B
:100C400000F0A18040F2B060C2F2000000780028FD
:100C500040F0B68097E041F6D040C2F20000007844
:100C6000012840F0978000F027F9A0E041F6D0403D
:100C7000C2F20000007878B140F2AC60C2F200002D
:100C80000078042100F0FE00022840F2C260C2F2A7
:100C9000000008BF0921017040F28810C2F2000074
:100CA000407828B140F2C260C2F200000C2101700D
:100CB00040F21004C2F2000494F84000012840F011
:100CC0009F80204603F084F840F25045C2F20005B0
:100CD0002046294605F09AFE40F28046C2F2000600
:100CE0002046314605F092FE28883080032084F8A3
:100CF000400070BDBDE8704004F0ECBF40F28810C9
:100D0000C2F20000407800287BD004F005FA41F6DA
:100D1000D240C2F2000001880131018070BD40F272
:100D2000AC64C2F2000420780538012805D841F6E9
:100D3000C440C2F2000002F069FE41F2A440C2F2D7
:100D400000000068002855D120780438022851D8C6
:100D500040F25C00C2F20000B0F91E00002836D458
:100D600003F0F8FE35E041F2A440C2F20000006852
:100D7000002846D124E040F2C060C2F200000088A2
:100D8000002818BF70BD40F2C260C2F2000000210E
:100D9000017070BD40F25C00C2F200000021C0F89A
:100DA0001E1040F2C260C2F200000521017040F244
:100DB000AC60C2F200000078043810F1030F1FD8B5
:100DC00040F2C260C2F200000121017070BD03F068
:100DD00095FE41F2684040F24452C2F20000C2F275
:100DE0000002416992F908205143B1F1FF3FDCBF95
:100DF0000021416141F6D040C2F20000007800B10C
:100E000070BD40F2C260C2F200000521017070BDE9
:100E100010B500244FF48050C4F2020403F09AFA93
:100E2000B0B11E2004F012FD4FF4805003F08CFA94
:100E300020464FF4805103F007FE012808D141F607
:100E4000D040C2F200000178B1FA81F14909017085
:100E50004FF4806003F07EFAC0B11E2004F0F6FC6F
:100E60004FF4806003F070FA04F580604FF4806105
:100E700003F0EAFD012818BF10BD40F28810C2F24D
:100E800000004178B1FA81F14909417010BD0000BC
:100E9000FEE70000B0B50321044603F07FF8216BA4
:100EA00005460846042102F007FA206B8021012242
:100EB00002F00CFA2846B0BD40F2706CC2F2000C91
:100EC000BCF8000040F2BC62C2F20002013012889D
:100ED00083B2B3FBF2F101FB1231002918BF0146C6
:100EE00040F2B860C2F20000038840F2AC60C2F287
:100EF00000008AB200789A42ACF800100DD240F29D
:100F0000BA61C2F20001022840F25C000988C2F214
:100F100000000CBF0184C1837047022840F25C00CE
:100F2000C2F200004FF000010CBF0184C183704782
:100F3000FEE70000704700007047000010B5013860
:100F4000082800F2D381DFE810F0090000016C00EE
:100F500098003C0030016C01C600A50140F2186207
:100F6000C2F2000241F6D0401278C2F20000012124
:100F700041F6D84C40F2C36E0170A2F11001C2F2EA
:100F8000000C0022C2F2000E8CF80010ACF8012018
:100F90008CF8271007E000BF00200EF80200013295
:100FA000042A00F0D98193B2002B0846F5D0022B19
:100FB000F2D0012BF0D00846022A98BF1CF802009C
:100FC000EBE740F21862C2F20002127840F2C06110
:100FD00041F6D84C40F2C36EC2F200010020103A34
:100FE000C2F2000CC2F2000E08808CF80020ACF8AF
:100FF00001008CF8272006E000210EF800100130D7
:10100000042800F0A98183B2002B1146F5D0022BF1
:10101000F2D0012BF0D01146022898BF1CF8001026
:10102000EBE740F21860C2F20000007841F6D84CBD
:1010300040F2C36EA0F11001C2F2000C0022C2F215
:10104000000E8CF80010ACF801208CF8271006E098
:1010500000200EF802000132042A00F07D8193B2D4
:10106000002B0846F5D0022BF2D0012BF0D0084619
:10107000022A98BF1CF80200EBE706F0BDFC40F224
:101080001860C2F20000007841F6D84C40F2C36EFE
:10109000A0F11001C2F2000C0022C2F2000E8CF886
:1010A0000010ACF801208CF8271006E000200EF8A4
:1010B00002000132042A00F04F8193B2002B08464F
:1010C000F5D0022BF2D0012BF0D00846022A98BFAF
:1010D0001CF80200EBE740F2C260C2F200000078A8
:1010E000012805D140F28810C2F2000001214170B0
:1010F00040F21860C2F20000007841F6D84C40F28D
:10110000C36EA0F11001C2F2000C0022C2F2000E68
:101110008CF80010ACF801208CF8271007E000BF15
:1011200000200EF802000132042A00F0158193B26B
:10113000002B0846F5D0022BF2D0012BF0D0084648
:10114000022A98BF1CF80200EBE740F21862C2F2D4
:101150000002127841F6D04141F6D84C40F2C36EFD
:10116000C2F200010020103AC2F2000CC2F2000EDE
:1011700008708CF80020ACF801008CF8272006E0FD
:1011800000210EF800100130042800F0E58083B241
:10119000002B1146F5D0022BF2D0012BF0D01146D6
:1011A000022898BF1CF80010EBE740F2C260C2F2C0
:1011B00000000178012908D140F2D011C2F20001EB
:1011C000012281F83D200B21017040F21860C2F22B
:1011D0000000007841F6D84C40F2C36EA0F1100137
:1011E000C2F2000C0022C2F2000E8CF80010ACF823
:1011F00001208CF8271006E000200EF802000132D2
:10120000042A00F0A98093B2002B0846F5D0022BE7
:10121000F2D0012BF0D00846022A98BF1CF8020039
:10122000EBE740F2C260C2F200000078012806D16C
:1012300040F21000C2F20000012180F8401040F29C
:101240001860C2F20000007841F6D84C40F2C36E3C
:10125000A0F11001C2F2000C0022C2F2000E8CF8C4
:101260000010ACF801208CF8271005E000200EF8E3
:1012700002000132042A6FD093B2002B0846F6D048
:10128000022BF3D0012BF1D00846022A98BF1CF89C
:101290000200ECE740F21860C2F20000007841F66C
:1012A000D84C40F2C36EA0F11001C2F2000C002233
:1012B000C2F2000E8CF80010ACF801208CF8271058
:1012C00006E000BF00200EF802000132042A43D0DD
:1012D00093B2002B0846F6D0022BF3D0012BF1D0AD
:1012E0000846022A98BF1CF80200ECE740F218609A
:1012F000C2F20000007841F6D84CA0F12002C2F200
:10130000000C0120ACF8010006208CF80300072037
:1013100050FA82F040F2C36100EB102E0023C2F2BB
:1013200000018CF800208CF827E004E00020C8546D
:101330000133052B10D09CB2002C1046F7D0022CA4
:10134000F4D0012C02D10120F1E700BF7046032B3D
:1013500098BF1CF80300EAE740F29860C2F2000070
:101360000121017010BD000010B582B00138C828FD
:1013700000F2CD82DFE810F085028A024602F00218
:10138000FF025B0291029A021F030F03050264022F
:101390003102E401A802B6023D032803CE013F0258
:1013A0006703DE012A02FE017102EB01CB02CB02D0
:1013B000870380031C024D02E3025402AE030E02B7
:1013C0002F03CB02CB02CB02CB02A503A80108035B
:1013D000A101930123027E0260036001C701A30201
:1013E000F902B503BF028A016E01DA03900383019B
:1013F00018034A037C01C900CE00E10351035703DF
:10140000D50179031E019E03C3033802F003C9000E
:10141000CE007003CB022E01AE01C60254010E04B1
:101420001701CB02CB02F701CB02CB02CB02CB02DE
:10143000ED0007019A01CB02CB02DA02250175010A
:10144000E600CA03F0013D013603FB002104DF0082
:10145000CB02CB02CB02CB02CB02CB020E015A0154
:10146000DA00F7032804BC032F0415041502FD035A
:101470004B01EA0300014303770267019703AF02C0
:10148000D4004401CB02CB02CB02CB02CB02CB0275
:10149000CB02CB02CB02CB02CB02CB02CB02CB02E4
:1014A000CB02CB02CB02CB02CB02CB02CB02CB02D4
:1014B000CB02CB02CB02CB02CB02CB02CB02CB02C4
:1014C000CB02CB02CB02CB02CB02CB02CB02CB02B4
:1014D000CB02CB02CB02CB02CB02CB02CB02CB02A4
:1014E000CB02CB02CB02CB02CB02CB02CB02CB0294
:1014F000CB02CB02CB02CB02CB02CB02CB02CB0284
:10150000CB02CB02CB02F4006A0240F24C60C2F282
:101510000000FFE240F24C60C2F20000821DFAE2DD
:1015200040F26050C2F20000821CF4E240F65C70AF
:10153000C2F20000EEE240F2C400C2F2000000F18C
:101540001602E8E241F23840C2F2000000F128023F
:10155000E1E24FF60000C0F6070000F5BA72F4E1D0
:1015600040F2D010C2F2000000F11402EDE140F2AE
:101570008860C2F20000C2E140F2B040C2F2000056
:1015800000F12002C7E24FF60000C0F6070000F5A8
:10159000BC72DAE141F6D84040F65C72C2F200005B
:1015A000C2F20002BBE240F2F060C2F2000000F1C1
:1015B0002202B0E240F28050C2F2000000F140028C
:1015C000A9E241F6D84041F23842C2F20000C2F22C
:1015D0000002A4E240F2605040F23042C2F2000049
:1015E000C2F2000201891268C088514391FBF0F0F9
:1015F00080E041F23840C2F2000000F122028AE2AB
:1016000040F26050C2F2000000F11B02CEE241F64F
:10161000D84040F2B042C2F20000C2F200027EE2C4
:1016200040F26050C2F20000006958E040F65C7081
:10163000C2F20000821C6EE240F28050C2F2000052
:1016400000F1780267E240F25C00C2F2000000F1B3
:10165000580260E240F25C00C2F2000000F10A02AF
:1016600059E241F23840C2F2000000F1260252E293
:1016700040F25C00C2F2000000F124024BE240F2B2
:101680005C00C2F2000000F1160244E241F6D840CC
:1016900040F2C062C2F20000C2F200023FE240F239
:1016A0008050C2F2000000F10C0234E24FF600005C
:1016B000C0F6070000F5BE7247E140F2C400C2F276
:1016C000000000F15C0271E240F2F060C2F2000042
:1016D000821C20E240F26050C2F20000C06840F27A
:1016E0003042C2F200024FF47A7112684843B0FBF4
:1016F000F2F000B2009041F6D840C2F200006A4613
:10170000F02110230EE140F28050C2F2000000F1FF
:101710007A0200E240F28040C2F2000000F12202B0
:10172000F9E141F6D84041F2A842C2F20000C2F20B
:101730000002F4E140F25040C2F20000821CEAE1F3
:1017400041F26840C2F2000000F12202E3E141F6FA
:101750000050C2F20000DDE141F23840C2F2000068
:1017600000F12002D7E140F26050C2F2000000F127
:101770001402D0E140F25040C2F2000000F1220217
:10178000C9E141F6D84041F26842C2F20000C2F21B
:101790000002C4E140F25C00C2F2000000F142022B
:1017A000B9E140F2D010C2F2000000F13D02FDE1CB
:1017B00040F25C00C2F2000000F11C02ABE140F21A
:1017C0008050C2F2000000F11402A4E140F2504047
:1017D000C2F2000000F120029DE141F26840C2F235
:1017E000000000F1200296E140F28050C2F20000B9
:1017F00000F130028FE140F25C00C2F2000000F123
:10180000200288E14FF60000C0F6070000F10C024C
:10181000CCE14FF60000C0F6070000F1800294E032
:1018200041F6C440C2F2000000F1080273E141F643
:10183000D84040F2B862C2F20000C2F200026EE18B
:1018400041F26840C2F20000821C64E140F2D01014
:10185000C2F2000000F1180277E041F60050C2F237
:101860000000821D57E14FF60000C0F6070000F5AA
:10187000017250E140F28050C2F2000000F15802C3
:1018800049E14FF60000C0F6070043E14FF60000C3
:10189000C0F6070000F108023DE141F6D84040F2F1
:1018A000C262C2F20000C2F2000283E141F6D840F7
:1018B00040F2AC62C2F20000C2F200027AE141F2F0
:1018C0001040C2F2000025E140F25C00C2F20000CC
:1018D00000F11E021FE140F2C400C2F2000000F15C
:1018E0005E0218E141F6D84040F28042C2F20000A8
:1018F000C2F2000213E140F2C400C2F2000000F1A3
:10190000080222E040F28810C2F2000002E1032047
:101910008DF8070041F6D840C2F200000DF1070231
:10192000E021082301F072F902B010BD41F6D84061
:1019300040F28862C2F20000C2F2000209E04FF6F3
:101940000000C0F6070000F1840241F6D840C2F260
:101950000000F0212023E4E041F6D84040F2BA62D2
:10196000C2F20000C2F20002D9E041F21040C2F21D
:101970000000821CCFE041F6D84040F2BC62C2F2C7
:101980000000C2F20002CAE040F2F060C2F20000C1
:1019900000F13002BFE041F6D84041F6C442C2F245
:1019A0000000C2F20002D4E740F25C00C2F2000084
:1019B00000F11802AFE041F6D84040F2AF62C2F247
:1019C0000000C2F20002F5E040F28040C2F20000E6
:1019D00000F120029FE040F25C00C2F2000000F142
:1019E000440298E041F23840C2F2000000F12402C3
:1019F00091E040F28040C2F20000821C8BE040F295
:101A0000B040C2F2000000F1220284E040F25C002B
:101A1000C2F2000000F122027DE040F24C60C2F20E
:101A20000000821C77E041F6D84040F2BE62C2F26C
:101A30000000C2F2000272E040F28050C2F20000E8
:101A400000F15A0267E041F6D84040F25042C2F23B
:101A50000000C2F2000262E041F6D84040F260525B
:101A6000C2F20000C2F2000259E040F28050C2F21D
:101A7000000000F134024EE040F25C00C2F20000CF
:101A800000F11A0247E041F6D84041F2A842C2F202
:101A90000000C2F200025CE740F25C00C2F200000B
:101AA00000F10E0237E041F60050C2F2000000F1F2
:101AB000120230E040F28050C2F2000000F1240235
:101AC00029E041F6D84040F2F062C2F20000C2F2D2
:101AD000000224E041F6C440C2F2000000F10A0214
:101AE00019E040F2C400C2F2000000F1480212E026
:101AF00040F65C70C2F2000000F10A020BE040F216
:101B00008050C2F2000000F1260204E041F23840A9
:101B1000C2F20000021D41F6D840C2F20000F021DE
:101B2000102302B0BDE8104001F070B840F25C0034
:101B3000C2F2000000F10C02EDE741F6D84040F29D
:101B40004C62C2F20000C2F20002E8E740F2B0408C
:101B5000C2F20000821CDEE740F28050C2F20000B8
:101B600000F13202D7E740F65C70C2F20000821D3D
:101B7000D1E740F2A83441F6D840C2F20004C2F2E4
:101B80000000F0212246502301F040F8002060714F
:101B900002B010BD40F2F060C2F2000000F120027D
:101BA000B9E740F28810C2F20000C21C41F6D840EA
:101BB000C2F20000F0210823B3E740F2C400C2F2F1
:101BC000000000F11702A6E740F65C70C2F20000C8
:101BD00000F108029FE741F6D84040F28812C2F2B5
:101BE0000000C2F20002E5E770B501460078013856
:101BF000052800F2E080DFE800F003968C914A9B14
:101C000040F21860C2F20000007841F6D84148F274
:101C1000C063A0F11004C2F2000120200022C0F62F
:101C200000030C70A1F80100985C092804D08E18FC
:101C300001321D2AF070F7D1202050FA84F24FF0C3
:101C4000FF3300BFC818007901331F2B0244F9D1BC
:101C500040F2C36502EB12220023C2F2000581F8B4
:101C6000272005E00020E8540133242B00F00381F5
:101C70009EB2002E2046F6D0022EF3D0012E01D1C6
:101C80002020F0E71046222B98BFC85CEBE788784D
:101C9000C97840F27B6440F27A62C2F20004C2F278
:101CA0000002217000211070002500F0EBF821786F
:101CB000044608460121012600F0E4F840F21861CC
:101CC000C2F200010978204200F0A780A1F11000C3
:101CD00041F6D84140F2C362C2F20001C2F20002F2
:101CE0000870A1F8015081F8270005E00023535542
:101CF0000135042D00F0BF80AEB2002E0346F6D0B1
:101D0000022EF3D0012EF1D00346022D98BF4B5D79
:101D1000EDE78878BDE87040FFF726BB8878BDE81E
:101D2000704000F095BA8878BDE87040FFF706B9BA
:101D300040F2186240F27B61C2F2000240F27A6027
:101D4000C2F200011278C2F200000E7841F6D841CA
:101D50000078A2F11004C2F2000102228B1C52FA98
:101D600084F50C70A1F80120C8700E7113F8010FF2
:101D7000013A0544FAD105EB152240F2C365002370
:101D8000C2F2000581F8272005E000BF0020E854DA
:101D90000133062B6FD09EB2002E2046F7D0022EC4
:101DA000F4D0012E02D10220F1E700BF1046042B2F
:101DB00098BFC85CEBE740F21860C2F20000007800
:101DC00041F6D841A0F12004C2F200010120A1F89F
:101DD0000100C870022050FA84F040F2C36500EBA5
:101DE00010220023C2F200050C7081F8272004E0C5
:101DF0000020E8540133052B3DD09EB2002E204632
:101E0000F7D0022EF4D0012E02D10120F1E700BF5D
:101E10001046032B98BFC85CEBE7A1F1200441F604
:101E2000D841C2F200010320C870042050FA84F0A7
:101E300040F2C36500EB10220023C2F200050C70D3
:101E4000A1F8016081F8272005E000BF0020E854D8
:101E50000133052B0FD09EB2002E2046F7D0022E64
:101E6000F4D0012E02D10120F1E700BF1046032B70
:101E700098BFC85CEBE740F29860C2F20000012115
:101E8000017070BD0F38732800F20F81DFE810F089
:101E900074000D010D010D010D014C010D010D012D
:101EA0000D010D01D50084010D010D010D018E0103
:101EB000EF000D010D010D010D010D010D010D01D1
:101EC0000D010D010D010D010D010D010D010D01A2
:101ED0000D010D010D010D010D010D010D010D0192
:101EE0000D010D0156016001A2019801A600F90043
:101EF000C1008E0067017101B501AC017E00CB000D
:101F0000BF018700B7009C0003010D010D010D0109
:101F10000D010D010D010D010D010D010D010D0151
:101F20000D010D019500D301C901B0000D010D0196
:101F30000D01DE007A010D010D010D010D010D01F4
:101F40000D010D010D010D010D010D010D010D0121
:101F50000D010D010D010D010D010D010D010D0111
:101F60000D010D010D010D010D010D010D010D0101
:101F70000D010D010D01E50040F25C0240F69C7080
:101F8000C2F20002C2F200001E325CE140F69C7018
:101F900041F2A842C2F20000C2F2000253E140F254
:101FA000805240F69C70C2F2000238E040F24C626F
:101FB00040F69C70C2F20002F4E041F6005240F696
:101FC0009C70C2F200021EE140F2805240F69C700A
:101FD000C2F20002C2F20000303234E140F25C0290
:101FE00040F69C70C2F20002C2F2000018322AE1F0
:101FF00041F6005240F69C70C2F20002F0E040F25E
:10200000805240F69C70C2F20002C2F200002632FA
:1020100019E140F25C0240F69C70C2F20002C2F28A
:10202000000024320FE140F2805240F69C70C2F270
:102030000002C2F20000343205E140F69C7041F625
:102040000052C2F20000C2F2000290E041F60052DB
:1020500040F69C70C2F2000276E040F25C0240F66C
:102060009C70C2F20002C2F200005832EBE040F273
:102070005C0240F69C70C2F20002C2F200001C3208
:10208000E1E040F25C0240F69C70C2F20002C2F253
:1020900000002232D7E040F2805240F69C70C2F23B
:1020A0000002C2F200003232CDE010B540F21860FA
:1020B000C2F20000007841F6D84CA0F12002C2F232
:1020C000000C0120ACF8010003208CF80300042070
:1020D00050FA82F040F2C36100EB102E0023C2F2EE
:1020E00000018CF800208CF827E004E00020C854A0
:1020F0000133052B10D09CB2002C1046F7D0022CD7
:10210000F4D0012C02D10120F1E700BF7046032B6F
:1021100098BF1CF80300EAE740F29860C2F20000A2
:1021200001210170002010BD40F25C0240F69C705D
:10213000C2F20002C2F20000203284E040F25C02EF
:1021400040F69C70C2F20002C2F200000A327AE04D
:1021500040F25C0240F69C70C2F2000267E040F67A
:102160009C7040F24C62C2F20000C2F200020632E1
:1021700069E040F69C7040F24C62C2F20000C2F28C
:10218000000260E041F6005240F69C70C2F200028C
:10219000C2F20000083256E041F6005240F69C7050
:1021A000C2F20002C2F2000004324CE040F25C02D3
:1021B00040F69C70C2F20002C2F200001A3242E005
:1021C00040F25C0240F69C70C2F20002C2F20000D3
:1021D000163238E040F25C0240F69C70C2F2000217
:1021E000C2F200000E322EE040F69C7040F2BE6259
:1021F000C2F20000C2F2000225E040F24C6240F65A
:102200009C70C2F20002C2F2000002321BE040F2F7
:10221000805240F69C70C2F20002C2F200004032CE
:1022200011E041F6005240F69C70C2F20002C2F288
:1022300000000C3207E040F69C7041F60052C2F2FA
:102240000000C2F2000240F8212001207047000087
:1022500010B582B00438812800F2FD81DFE810F06B
:102260008200B301CA01FB01A601140286024E01DD
:10227000CB024701D2027C01FD01ED013901BD0213
:10228000C402EE02E0021B01F401FB01FB01FB01B1
:10229000FB01FB01FB01FB01FB01FB012203290107
:1022A000D1015501FB01FB01FB01FB0133024001A0
:1022B000F700FB0139039601AC01AD02BA01BE0083
:1022C0002201D9026103FB01FB01FB01FB01FB01C0
:1022D000FB01FB01FB01FB01FB01FB01FB01FB011E
:1022E000FB01FB01FB01FB01FB01FB01FB01FB010E
:1022F000F0009602E900FB01D80068010402F50233
:1023000089000E01FB01FB013A02FB01FB01FB010D
:10231000FB01FB01FB01FB01FB01FB014C02740310
:102320002302AE009000940349039E00FB01FB01D1
:10233000FB01FB01FB01FB01FB01FB01FB01FB01BD
:10234000FB01FB01FB01FB01FB01FB01FB01FB01AD
:10235000FB01A602E70297003203FB011203FB0117
:10236000A8038403B1F8034040F2BA6CC2F2000C37
:10237000F0E2B1F8034040F2F06CC2F2000C09E365
:10238000B1F8034041F2384CC2F2000C72E1B1F8EE
:10239000034040F2B04CC2F2000CFBE2B1F8034043
:1023A00041F2384CC2F2000C41F6D840C2F20000B3
:1023B000F02100220023ACF82440F4E2B1F80340FD
:1023C00041F2384CC2F2000C41F6D840C2F2000093
:1023D000F02100220023ACF82840E4E2B1F80340E9
:1023E00048F2010140F2805C47F6FF70CFF6FF71C2
:1023F000C2F2000CA040A140CCE9180141F6D8403F
:10240000C2F20000F02100220023ACF87A40CAE2B8
:1024100040F2605C40F23042C2F2000CC2F20002B4
:10242000BCF808001268B1F803105043B0FBF1F497
:10243000B2E1B1F8034040F2605CC2F2000C89E204
:10244000B1F8034040F24C6CC2F2000C12E140F2D1
:10245000F064C2F20004B1F80300628C20864142AD
:102460009040C0F1000C41F6D8406182C2F20000F9
:10247000F02100220023C4F80CC094E240F2F06C7A
:10248000C2F2000CB1F80300BCF91210ACF8220043
:1024900001FA00F423E2B1F8034040F2504CC2F2DA
:1024A000000C77E2B1F8034041F2104CC2F2000C8C
:1024B000E0E0B1F8034041F6C44CC2F2000C41F632
:1024C000D840C2F20000F02100220023ACF80A40FC
:1024D00069E2B1F8034040F2804CC2F2000C59E2CC
:1024E000B1F8034040F2F06CC2F2000C42E2B1F8E5
:1024F000034041F2684CC2F2000C4BE2B1F80340D9
:1025000041F2684CC2F2000C24E2B1F9030040F23F
:102510005C0141F2684CC2F20001C2F2000CA1F869
:102520004400BCF82210ACF8120000FA01F4D6E125
:10253000B1F8030040F23041C2F20001096840F2F4
:10254000605C484344F6D351C1F26201A0FB010133
:102550008C09C2F2000CC2E140F25C0EC2F2000E25
:10256000B1F903C0BEF94200844500F33182BEF9DF
:1025700044008445C0F22C8241F6D840C2F20000EB
:10258000F02100220023AEF81EC00CE2B1F8034097
:1025900040F2805CC2F2000C41F6D840C2F200006A
:1025A000F02100220023ACF81440FCE1CC7840F28A
:1025B000AD6CC2F2000C6CE0B1F8034040F2805CFC
:1025C000C2F2000C64E1B1F8034040F2BC6CC2F20C
:1025D000000CBFE1B1F8034040F2805CC2F2000C95
:1025E00041F6D840C2F20000F02100220023ACF8EE
:1025F0007840D8E1B1F8034040F2B86CC2F2000C68
:10260000A8E1B1F9030040F25C0141F2684CC2F26A
:102610000001C2F2000CA1F84200BCF82210ACF894
:10262000100000FA01F441F6D840C2F20000F02197
:1026300000220023CCF80840B5E1B1F8034040F295
:10264000804CC2F2000C95E1B1F8034040F2504CCE
:10265000C2F2000C53E10320BBE1B1F8034040F2A9
:10266000804CC2F2000C75E1B1F8034040F2881CC6
:10267000C2F2000C41F6D840C2F20000F021002264
:102680000023ACF804408EE1CC7840F2AF6CC2F28B
:10269000000C41F6D840C2F20000F02100220023D5
:1026A0008CF800407FE1B1F8034041F2384CC2F2AF
:1026B000000C41F6D840C2F20000F02100220023B5
:1026C000ACF826406FE1B1F8034040F2F06CC2F282
:1026D000000C3FE1B1F8030040F26052C2F2000288
:1026E000908241F6D840C2F200000C46F021002250
:1026F000002300F08BFA214640F21862C2F2000279
:10270000D1F8030040F288611278C2F2000141F66C
:10271000D84C40F2C36E0860A2F11001C2F2000C66
:102720000022C2F2000E8CF80010ACF801208CF8E8
:10273000271005E000200EF802000132042A0DD017
:1027400093B2002B0846F6D0022BF3D0012BF1D028
:102750000846022A98BF1CF80200ECE740F2986095
:10276000C2F200000121017002B010BDD1F8034097
:1027700041F6C44CC2F2000C41F6D840C2F200004F
:10278000F02100220023CCF800400CE1B1F8034016
:1027900040F24C6CC2F2000C41F6D840C2F200008C
:1027A000F02100220023ACF80640FCE0B1F8034021
:1027B00040F2B04CC2F2000CCCE0B1F8034040F261
:1027C000805CC2F2000C41F6D840C2F20000F02159
:1027D00000220023ACF85A40E5E0B1F8034040F293
:1027E000804CC2F2000C8AE0B1F8034040F25C0C6D
:1027F000C2F2000CCEE0B1F8034041F2684CC2F2E4
:10280000000CB7E0B1F8034041F2684CC2F2000C92
:1028100075E0B1F8034041F2104CC2F2000CA9E09F
:10282000B1F8034040F2504CC2F2000CA2E0B1F803
:10283000034040F2B04CC2F2000C9BE0B1F8034000
:1028400040F2504CC2F2000C84E0B1F8030040F2B8
:102850003041C2F20001096840F2605C484344F62E
:10286000D351C1F26201A0FB01018C09C2F2000C3C
:1028700041F6D840C2F20000F02100220023CCF83B
:10288000104090E0B1F8034040F25C0CC2F2000C42
:1028900041F6D840C2F20000F02100220023ACF83B
:1028A000584080E0B1F8034041F6C44CC2F2000C3D
:1028B00041F6D840C2F20000F02100220023ACF81B
:1028C000084070E0B1F8034040F2B04CC2F2000C96
:1028D0001DE0B1F9034040F2805CC2F2000C41F609
:1028E000D840C2F20000F02100220023CCF80C40B6
:1028F00059E0B1F8034041F2384CC2F2000CBCF987
:102900001000BCF91210A040A140CCE9020141F630
:10291000D840C2F20000F02100220023ACF822408F
:1029200041E0B1F8030040F2C40CC2F2000CACF874
:102930004800440041F6D840C2F20000F0210022D5
:102940000023ACF84A402EE0B1F8034041F2384C85
:10295000C2F2000C41F6D840C2F20000F021002281
:102960000023ACF800401EE0B1F8034040F2605C88
:10297000C2F2000C41F6D840C2F20000F021002261
:102980000023ACF802400EE0B1F8034041F2384CAD
:10299000C2F2000C41F6D840C2F20000F021002241
:1029A0000023ACF8204002B0BDE8104000F02EB982
:1029B000B1F8034040F2C40CC2F2000C41F6D8401A
:1029C000C2F20000F02100220023ACF85E40EAE7EA
:1029D00005208DF8070041F6D840C2F200000DF145
:1029E0000702E021082300F011F902B010BD000039
:1029F0004FF2F370C1F6FF700078811E232915D8BD
:102A00000120DFE801F01213121213121212131335
:102A10001312121212131212121212121212121393
:102A20001312121212121212121270470020704763
:102A30004FF6D070CEF20F00017801F00F01092996
:102A400008D1017D007E090960F306113B2904BF0E
:102A500001207047002070477047000010B540F219
:102A60004450C2F200004168408941F2A442014151
:102A700040F25C50C2F200000068C2F20002116035
:102A800003F0BEF940F2AF61C2F20001097841F2F1
:102A9000A844C2F200040129206008BF01F09EFC96
:102AA00040F22610C2F200000078FEF7A7F840F2CC
:102AB0007E6CC2F2000CBCF8021041F6DB225143DE
:102AC00040F2D072CFF6300202EB411140F688722C
:102AD000090CC2F20002118041F60052C2F200025B
:102AE00041F626539180C2F20003BCF80010B3F9FE
:102AF0000030246859438B0B41F38F3E41F6C441AB
:102B0000C2F2000142F635704968C0F20200444347
:102B10004843C00B508040F28860C2F20000E40BD2
:102B2000D0E901011480172461436043C90BC00B35
:102B3000D3801181508140F27F2040F2241240F274
:102B4000C0618645C2F20002C2F2000101DA02232E
:102B500004E018B2B0F55C6F05DB012310880C8827
:102B6000184020430880BCF8020040F679239842C0
:102B700005D310880A8800F00400104308800888F4
:102B8000002808BF10BD40F2C260C2F20000072159
:102B9000017010BDB0B54EF68854CEF20004206826
:102BA00043F6000540F4700020600120C4F20205E5
:102BB00000F08CFF286840F001002860286880073A
:102BC000FCD5A86820F00300A86000BFA86810F03A
:102BD0000C0FFBD128684FF6FF71CFF6F261084069
:102BE00028604FF08040A86040F2C17068604FF4E8
:102BF0007120C5F8A0004FF41F00E860002000F02D
:102C000065FF4FF0006044F8800CB0BD2DE9F04F37
:102C100083B0844640F21860C2F2000000784FEAA8
:102C2000D30E00EB010BE246DD0A60464FEAF307E4
:102C30000AF801EF0A2F00F8025F8CF800B000F2EA
:102C400085800621029105210191022100914FF01A
:102C500004080126032314469146DFE807F03734C1
:102C60002E7722777777777706001178941D8CF886
:102C7000051051780A278CF80610917807268CF8F1
:102C80000710D17809238CF8081011798CF80310FB
:102C900051798CF804100C2102910B21019108212B
:102CA000009121780CF80310915D1E460CF8071076
:102CB0000099DDE9013802EB010999F8001032446E
:102CC0000CF80310434611780CF803105FFA8EF1EC
:102CD00051EA052255FA8EF151FA8BF30AD00CF124
:102CE00003070026002500BFB95D0135EEB2B242F0
:102CF0000B44F9D803EB1321634640F2C36503F894
:102D0000271FD71C04320026C2F2000505E000BFD1
:102D10000978A9550136B2420FD0B4B2022C01464F
:102D2000F6D0012C5146F3D0002C6146F0D0194664
:102D3000BE4238BF0CEB0601EAE740F29860C2F2EF
:102D400000000121017003B0BDE8F08F48F2C064BB
:102D50000CF103020023C0F6000400BFE15C092966
:102D6000B4D0D15401331D2BF8D1AFE710B50024F6
:102D7000C4F201042046802104F0DCF8002808BFDA
:102D800010BD2046802104F0D1F840F22410C2F298
:102D9000000040F2C0610088C2F200010A8800F021
:102DA00008001043088010BD2DE9F0410024C4F252
:102DB00001042046012104F0BDF8002800F017812D
:102DC0002046012104F0B2F802F0F4FE40F2D010E7
:102DD000C2F2000090F83D10012909D190F83C00A2
:102DE000012805D140F2D010C2F2000003F004FC2B
:102DF00040F2241040F22818C2F20000C2F200088B
:102E00000488404603F080FD40F2C061C2F2000138
:102E10000A882040104340F68472C2F2000241F258
:102E200098451268C2F2000508804046294602F023
:102E30001BFB698843F6FE72411A09B29142288051
:102E4000688002DD4FF6FF7106E04CF20102CFF61A
:102E5000FF72914203DC0121AA881144A98040F24B
:102E6000B06140F62C72C2F20001C2F20002097891
:102E700012780A4200F09D8040F2AC67C2F200076F
:102E8000397800294DD040F2BE61C2F200010880BD
:102E900004F088FB41F6D44540F25C06C2F200051E
:102EA000C2F20006286006F10A0006F1160101F0E0
:102EB00011FC3046294601F0BFFC40F27664738B6A
:102EC0003A78C2F200042380931EB6F91C00B6F9CA
:102ED0002010042B40F27267F38BC2F2000760806F
:102EE00079803B8047D8091A40F25040C2F2000076
:102EF00003F094FC40F24C6540F28046C2F20005BB
:102F0000C2F20006E8802846314601F0ADFCB7F970
:102F10000000B4F90010411A304603F07FFCA8808D
:102F200031E040F24C6541F21046C2F20005C2F2B7
:102F300000062846314601F075FCB6F9000040F263
:102F4000BE61C2F20001088004F02CFB41F6D446B9
:102F500040F25C07C2F20006C2F20007306007F1DF
:102F60000A0007F1160101F0B5FB3846314601F0C1
:102F700063FC284605E0012A05D140F24C60C2F20C
:102F8000000001F089FB40F24C65C2F2000541F6F9
:102F9000D441C2F20001284601F02CFC40F20C564C
:102FA000C2F200062846314603F002FE304603F026
:102FB0006BFC40F27C64C2F200042078411C41F6B4
:102FC0000050C2F20000027C4BB293422170B8BFA5
:102FD000BDE8F08140F2BE62C2F2000298F8001033
:102FE00012888181C28104F0EFFB00202070BDE8CF
:102FF000F081000001F020BE10B541F20044C4F29F
:1030000000042046012103F095FF00285ED02046F1
:10301000012103F08BFF41F2984041F29E43C2F23E
:103020000000C2F20003B0F900C0B0F90420B3F907
:103030000440B3F90010121BACEB0101046801EB72
:10304000C23140F2E042C2F200021C608088D468C3
:1030500098800819D06000EE100A40F2C2609FED1F
:103060001C1AC2F20000B8EEC00A007820EE010A75
:1030700040F28861BDEEC00AC2F20001042881ED71
:10308000020A23D140F2AC60C2F200000078053899
:10309000012888BF10BD41F6C44041F2A441C2F2EC
:1030A0000000C2F2000140680968411A41F6C040C0
:1030B000C2F20000016041F26840C2F2000003F079
:1030C000ADFB40F25C01C2F20001C88310BD00BF3D
:1030D00000A08C3EB0B582B041F20005C4F20105FB
:1030E0002846102104F00EFCE8B346F230042846CE
:1030F0001021C4F2020404F0EFFB2046002101F08D
:1031000011F8204601F014F841F61A52C2F20002FA
:10311000157841F61451C0F10C03C2F20001412DA3
:103120000B8009D15278C0F1090083B293424880E4
:1031300004D104F0C5FA0EE00B2000E00C208DF85D
:10314000070041F6D840C2F200000DF10702E0216D
:103150000823FFF75BFD20460C2100F0EDFF204621
:10316000012100F0DFFF02B0B0BD0000FEE700006B
:103170000A78436802F0010223F4807343EA0222D2
:1031800042604A78836862F3410383608A78836887
:1031900002F0010223F4006343EAC2228260C9788C
:1031A000C26A013901F00F0122F4700242EA0151B2
:1031B000C16270474FF0807101607047816841F0D3
:1031C00008018160704700008068C0F3C00070474C
:1031D000816841F004018160704700008068C0F39D
:1031E0008000704742F20431C4F2010102780B689A
:1031F00062F304030B6042780B6802F00F0223F4C1
:10320000702343EA02420A6082780B6802F00402EB
:1032100023F0805343EA82620A6082780B6802F0EE
:10322000030223F4404343EA82320A60C2780B6807
:1032300002F0010223F4005343EA42320A600279A9
:103240000B6802F00F0223F4706343EA02220A6063
:1032500042790B6802F0010223F4000343EAC252F0
:103260000A6080790A6800F0010022F4800242EAD4
:1032700080500860704700000021C0F80310016012
:1032800070470000826801F0010122F4807242EA76
:103290000121816070470000826801F0010122F481
:1032A000007242EA4121816070470000826861F348
:1032B0000002826070470000C9430160704700004F
:1032C0000068084018BF01207047000032B1012A91
:1032D00018BF70474268114341607047426822EA54
:1032E00001014160704700004B1E02461F2B4FF04A
:1032F00000001AD80FF20401DFE803F01031222396
:10330000222222222222222222222222222222229D
:1033100022222222222222222222222A1068C007CE
:1033200020D05068C0F380107047802918BF7047C4
:10333000106800065CBF002070475068C0F3C06092
:103340007047106840070DD55068C0B2C00970477B
:103350001068800606D55068C0F38060704710681A
:10336000800701D4002070475068C0F340107047B8
:10337000B0B501EB410C4FF00C0E0A2928BFACF19F
:103380001E0C38BF4FF0100E50F80E40072505FAFE
:103390000CF5AC4303FA0CF3234334256FF004041B
:1033A00040F80E30062A88BF302588BF6FF022040F
:1033B00002EB82030C2A84BF2C256FF040041A19FB
:1033C00043591F249440A343914019434151B0BD38
:1033D000F0B58BB0082042F200040027C0F2440090
:1033E0000121C4F20104CDE90877012600F046FC72
:1033F0000DF119052846FFF73FFF4FF40070ADF8B7
:1034000019002846CDF81B708DF81F70FFF7EAFEF3
:103410000225C0F2300505F11400012100F02EFC58
:103420004FF44010012100F029FC681E012100F03A
:1034300025FC2846012100F021FC2846012100F04E
:103440001DFC08AD284601F0B9FA03208DF82600CE
:103450001020089004F560402946ADF8246001F082
:10346000B5FA0220089004F56440294601F0AEFA4E
:10347000089604F568463046294601F0A7FA082068
:1034800008903046294601F0A1FA20460021FFF7B6
:103490000DFF46F20805C4F202052846002100F09F
:1034A00041FE284600F0ACFE6E46304600F046FE77
:1034B0000420C0F20010CDF80A0040F27E60C2F293
:1034C0000000019004F14C0000904FF00130CDF865
:1034D0000E0028463146ADF8087000F043FE04F5B2
:1034E000A03005F1FC01052200F030FE2846012144
:1034F00000F018FE0DF115052846FFF75BFE0120D0
:10350000C0F20040CDF8150020462946FFF730FEF6
:103510002046002100F094F92046042101220123D5
:10352000FFF726FF2046092102220123FFF720FF93
:1035300020460A2103220123FFF71AFF20460D210E
:1035400004220123FFF714FF20460021002200F08F
:1035500029F820460121FFF795FE20460121FFF7BB
:103560009BFEA068C0071AD120460121FFF79EFEEE
:1035700020464021FFF7A4FE0028F9D02046FFF79F
:103580001DFE00BF2046FFF71FFE0028FAD120468F
:10359000FFF71EFE2046FFF721FE0028FAD10BB0F0
:1035A000F0BD0000836810294FEA016105D343F0A4
:1035B0000043836001F0706102E023F00043836008
:1035C000836802F0030223F070631943816081680D
:1035D00021F0405141EA027181607047826801F038
:1035E000010122F0804242EA81718160704700004F
:1035F000826B013901F0030122F4401242EA0151C9
:1036000081637047B0B501EB410C4FF00C0E0A29F5
:1036100028BFACF11E0C38BF4FF0100E50F80E4012
:10362000072505FA0CF5AC4303FA0CF3234340F8E5
:103630000E30836BC3F30153D21A03324FF0FF33C2
:1036400053FA82F2032A88BFB0BDDFE802F002110C
:10365000070C826B61F304028263B0BD826B61F37D
:103660008E228263B0BD826B61F3D3328263B0BDC0
:10367000826B61F349128263B0BD0000F0B587B080
:1036800042F20004C4F20104002720460021CDE9E3
:103690000477FFF70BFE0820C0F244000121012649
:1036A00000F0ECFA0DF109052846FFF7E5FD4FF4AF
:1036B0000070ADF809002846CDF80B708DF80F703A
:1036C000FFF790FD4FF44010012100F0D7FA4FF4BE
:1036D0004010012100F0D2FA4FF44010012100F017
:1036E000CDFA04AD284601F069F90320ADF8146065
:1036F000049604F560468DF816003046294601F020
:1037000065F9022004903046294601F05FF9042053
:1037100004903046294601F059F90DF10505284677
:10372000FFF748FD0120C0F20040CDF8050020461B
:103730002946FFF71DFD2046002100F081F82046B4
:103740000321FFF755FF2046002101220123FFF747
:1037500059FF2046012102220123FFF753FF204693
:10376000022103220123FFF74DFF20460021012201
:1037700000F03CF820464FF4800100F06BF8204642
:103780004FF46E6140F21D1200F074F820464021A3
:103790000122FFF79BFDA068C0071AD12046012136
:1037A000FFF784FD20464021FFF78AFD0028F9D06D
:1037B0002046FFF703FD00BF2046FFF705FD002868
:1037C000FAD12046FFF704FD2046FFF707FD002849
:1037D000FAD107B0F0BD000003298FBF002001F02F
:1037E0003F0100EB8100C06B80B2704783681029F5
:1037F0004FEA014105D343F40003836001F47021D3
:1038000002E023F400038360836802F0030223F4E0
:10381000702319438160816821F4401141EA02510B
:1038200081607047826801F0010122F4800242EA5F
:1038300081518160816821F48001816070470000BE
:10384000426801F0030122F0407242EA01614160E6
:1038500070470000426822F400024260426822F48D
:1038600080024260426822F4007242604268114362
:1038700041607047D0F824C04FF6FF732CEA030371
:1038800019444162816A6FF30F01114481627047EC
:1038900000F500510AB2002A48BFA0F5C0414FF41C
:1038A000FC4208B202EA412148F2E0628009C0F617
:1038B000000202EB400332F91000B3F90220C1F517
:1038C000004358430023C7F6FF73184012FB010062
:1038D0006FF0010101EAD03000B270474FF4FC42B2
:1038E000C0F3881102EA402048F2E062C0F600020C
:1038F00002EB410332F91110B3F90220C0F5004385
:1039000059430023C7F6FF73194012FB00106FF0F4
:10391000010101EAD03000B2704700002DE9F04FFC
:1039200085B04FF44010012100F0A8F940F2000BDF
:1039300040F20119C4F2020BEA464FF48055C0F27E
:103940000019584651460095CDF8049001F03EF814
:103950000E27C0F244073846012100F08FF90020FD
:103960000C214FF0000802F0FFFF02AC204600F0EF
:10397000E5FC03954FF4807520468DF80880ADF87E
:10398000105000F0F1FC0120C0F23000012100F0E5
:1039900075F94FF480660BF580605146CDE90069FA
:1039A00001F014F83846012100F068F901200A21DD
:1039B00002F0DAFF204600F0C1FC20468DF80880B6
:1039C0000396ADF8105000F0CFFC05B0BDE8F08FC5
:1039D00010B504460068012103F07CFC206800213A
:1039E000002203F073FA20680221002203F06EFA2D
:1039F00020680421002203F069FA012001F026FF6B
:103A000020680021BDE8104003F064BCD0E9001C30
:103A1000B0F90820A1EB0C0393420FDA80B5B0F99E
:103A20000AE0CEF10002934204DAACEB0E028A42C5
:103A3000C8BF1146BDE880404160704762448A4279
:103A4000B8BF11464160704743F6A401C4F20201B9
:103A50000A6800F00F0042F030020A6051F89C2C16
:103A600022F0F00242EA001041F89C0C086820F0B5
:103A7000300008607047000043F60801C4F20201FC
:103A80000A6800F0070022F4E05242EA8020086051
:103A90007047000043F60801C4F202010A6800F012
:103AA000070022F4604242EA40300860704700009C
:103AB00043F6A401C4F202010A6800F0070022F4F0
:103AC000E04242EA003008607047000043F6A4017B
:103AD000C4F202010A68012822F0300208BF303225
:103AE0000A607047042888BF7047DFE800F0032BA6
:103AF00015220C0043F60000C4F20200026861F3D4
:103B000000020260704743F60000C4F20200426FF8
:103B100061F300024267704743F60000C4F20200FE
:103B2000026801F0010122F0807242EA0161016045
:103B3000704743F60000C4F20200026F61F3000216
:103B40000267704743F60000C4F20200026801F009
:103B5000010122F4803242EA014101607047000015
:103B600043F6040CC4F2020CDCF8043041F20022EB
:103B7000C0F27A02C3F3810310B5DFE803F0021349
:103B80001A2FDCF89C10490446F60041C0F2DC21F3
:103B900058BF11460160DCF8A020C2F3024221FAAE
:103BA00002F21BE00260DCF8A010C1F3C241CA407F
:103BB00014E0DCF80010DCF80010DCF80030C1F391
:103BC000881EDCF8001015A4C1F30341615C03F00A
:103BD0000F030EFB02F25943B2FBF1F20260DCF874
:103BE000041012A2C1F30311515C026848F2B863D9
:103BF00022FA01F14160DCF80420C0F60003C2F3B0
:103C000082229A5C21FA02F2C260DCF80420C2F33C
:103C100042329A5CD140816010BD00BF01020406AF
:103C2000080A0C0E10121416181A1C1E00000000B0
:103C300000000000010203040607080943F6000221
:103C4000010CC4F20202895800F01F0021FA00F0B2
:103C500000F001007047000043F600000021C4F2AC
:103C6000020000BF0268920304D4B1F5405F01F185
:103C70000101F7D30068C0F34040704743F60002EB
:103C800000F01F034FF0010CC4F2020201290CFAEC
:103C900003F14FEA1040835814BF23EA010119438E
:103CA0008150704710B543F6040CC4F2020CDCF8E6
:103CB00000E000F001042EF0804040EA8470CCF86F
:103CC0000000DCF8000061F38E10CCF80000DCF896
:103CD000000003F00F0162F30300CCF80000DCF8F1
:103CE000000020F4702040EA0140CCF8000010BD34
:103CF00043F60401C4F202010A6800F0070022F44E
:103D0000E00242EA005008607047000043F60401F8
:103D1000C4F202010A6800F0010022F0005242EAF7
:103D2000407008607047000043F60000C4F20200D3
:103D3000D0F8A41041F03001C0F8A410016841F09F
:103D40000101016001688907FCD5816821F0030148
:103D5000816000BF816811F00C0FFBD101684FF644
:103D6000FF72CFF6F262114001604FF08041816036
:103D700040F2C17141604FF47121C0F8A0104FF4BE
:103D80001F01C160D0F8A41021F03001C0F8A410C8
:103D90007047000043F6A401C4F202010A6842F031
:103DA00030020A6051F89C2C60F3010241F89C2C0F
:103DB000086820F0300008607047000043F60800F3
:103DC000C4F202000068C0F38100704700000000E8
:103DD0002DE9F04F81B02DED068B82B00446808B2B
:103DE0009FED6B1A00EE100AB8EE400A80EE010A51
:103DF00010EE100AFCF73DFC94ED040B02460B4656
:103E000051EC100BFCF7E1FAFCF746FC0646D4E94E
:103E10000001A66191ED000AB0EE081A90ED008A4B
:103E200020EE011A81EE081A9FED5A2AE08B9FEDD1
:103E30005AAA82EE011A02EE100AB8EE422AB4EE35
:103E4000421AF1EE10FAC2BFBDEEC11A11EE100A0D
:103E5000E083E18B208C814288BFE083E08B01EE20
:103E6000100AB8EE419A20EE090A20EE0A0A10EE76
:103E7000100AFCF7FEFB94ED020B02465AEC10BB55
:103E80000B4658465146FCF7A0FA054630460F4609
:103E9000FCF7EFFB064689462846394632464B4634
:103EA000FCF705FB41EC100B0546884684ED0A0B38
:103EB00004F086F904F004FA53EC102B9FED320B5A
:103EC00051EC100BCDE90001FCF779FAFCF7B2FBDD
:103ED0000F270F2828BF38460121A08701FA00F0DC
:103EE000FCF79BFB02460B4628464146FCF76DFA61
:103EF000FCF7A0FB28EE090A20EE0A0A208710EE44
:103F0000100AFCF7B6FB02460B4658465146FCF732
:103F10005CFA32464B46FCF7CAFA0546606A0E4622
:103F2000FCF76AFB02460B4628463146FCF7BFFA0F
:103F300041EC100B05460E4684ED0C0B04F040F9E5
:103F400004F0BEF9DDE9000153EC102BFCF737FA61
:103F5000FCF770FB0F2838BF07460120B840E78701
:103F6000FCF75BFB02460B4628463146FCF72DFA70
:103F7000FCF760FB608702B0BDEC068B01B0BDE8CA
:103F8000F08F00BF00BF00BF0000000000002A400B
:103F900000F07F454CBE8C40D7B3DD3F2DE9F043A8
:103FA00081B040F2B166C2F2000632780D46102AA6
:103FB000044642D840F2B46840F2B66940F2B267B3
:103FC000C2F20008C2F20009C2F2000703E000BF1B
:103FD0003078102831D8206B04E000BF3078411CC5
:103FE000206B31700421FFF76BF90028F0D0206BB3
:103FF0000421FFF761F930780028EFD035B1206B4C
:104000000021FFF7E9FB398808443880022D08D3E6
:10401000206B0121FFF7E0FBB8F800100844A8F876
:104020000000032DDAD3206B0221FFF7D5FBB9F88E
:1040300000100844A9F80000D0E740F2B260012D5A
:10404000C2F2000011D0032D13D140F2B4610088F8
:10405000C2F2000109880009E0840809208540F2C5
:10406000B6602A21C2F2000000E02C21008800097D
:104070006052012001B0BDE8F083000070B5044635
:10408000006B0E460021FFF7A7FBE18C081AC10068
:10409000206B21820121FFF79FFB218D081AC100AF
:1040A000206B61820221FFF797FB618D081A40F2B5
:1040B0008811C2F20001C978C0000129A08202D192
:1040C000618A6082A182628FB4F91000B4F9121083
:1040D000B4F9143094F83E505043C5F10F055143E4
:1040E0005A43284129412A41B6F91450B38E2082FF
:1040F0009D426182A28205DD88184042A181E28151
:10410000608170BDB6F9166060819E4204DD104486
:104110004042E281A08170BD08444042A181E0811B
:1041200070BD0000026861F3000202607047000089
:10413000406880B2704700004160704700210182F2
:10414000C0E90011C0E9021170470000D0F8003149
:1041500043F00103C0F80031086862F3060008600C
:104160007047000002684BF6EF731A4002600A893C
:1041700003681A4302604A7C036802F0030223F4D6
:10418000405343EA02320260CA7B036802F0030232
:1041900023F4406343EA822202608A7B036802F0D0
:1041A000030223F4407343EA022202604A7B03685D
:1041B00002F0010223F0800343EAC21202600A7B8C
:1041C000036862F3861303600A7C036862F3451395
:1041D0000360B1F80AC043684FF6FF7223EA020297
:1041E000624442600A6882604968C16070470000AA
:1041F000002A02680CBF22EA0101114301607047E6
:10420000016821F0010101600021016041608160CD
:10421000C16040F2FF6100EA010246F20401B2F51A
:10422000C16FC4F2020105D3D208D02A88BF7047FB
:1042300001F5806100F0FC004CF6CD420838CCF668
:10424000CC42A0FB02026FF0030000EA92000F22B2
:104250000B6802FA00F01843086070472DE9F0433C
:1042600085B046F21C04C4F202042046FFF7C8FFE2
:104270006D462846FFF762FF40F22E20C0F2001084
:10428000CDF80A001020ADF8080040F6A470C2F284
:10429000000041F204080190C4F201084FF0000947
:1042A00020462946CDF80080CDF80E90FFF75AFF42
:1042B000A4F11C0604F1EC0130461922FFF746FF79
:1042C000204602210022FFF793FF04F1140738462D
:1042D000FFF796FF2846FFF731FF0C20C0F20010D1
:1042E000CDF80A0041F61A50C2F20000CDE9008074
:1042F00038462946ADF80890CDF80E90FFF732FF0A
:1043000004F1F00130461822FFF720FF3846022161
:104310000022FFF76DFF05B0BDE8F08310B504463D
:104320000068012102F0D6FF20680121BDE810409D
:1043300002F0F4BD0068012102F05CBD0021416083
:10434000012101810170704743F61441C4F201015B
:104350000860704743F61441C4F20101096808403F
:1043600018BF01207047000043F60841C4F2010164
:10437000426851F8083C934341F8083C51F8043C2A
:10438000934341F8043C437A002B08BF70470378FD
:104390006FEA020C2BB151F8043C134341F8043C82
:1043A00004E051F8083C134341F8083C0B6803EA69
:1043B0000C030B604B6803EA0C034B60007A012886
:1043C00007D018B9086810430860704708681043A0
:1043D00008604868104348607047000040F27E6003
:1043E000C2F2000040F2AC618088C2F2000141F6E6
:1043F000BC4209787C38C2F200021080052900B264
:104400000ED0042918BF7047F82817DB46F69E1116
:10441000484340F25C01C00BC2F20001C883704700
:10442000F82812DB400080B245F67A51484341F645
:10443000C441C00BC2F200010860704740F25C004A
:10444000C2F200000021C183704741F6C440C2F2AD
:10445000000000210160704743F61040C4F20200E2
:10446000016841F0800101607047000043F60C4193
:10447000C4F202014A6842F002024A608860486859
:1044800040F0400048600868C0070AD1086840074B
:104490000AD40868C0064FF0020058BF032008BBCA
:1044A00004E00020F0B901E00120D8B94FF08042CB
:1044B0000868C0070AD10868400709D40868C00620
:1044C0004FF0020058BF032003E000BF002000E0CF
:1044D0000120A2F1010310B9012A1A46E8D1002BEC
:1044E00008BF04204A6822F002024A6070470000B8
:1044F00043F6044040F22311C4F20200C4F26751B3
:10450000016048F6AB11CCF6EF5101607047000036
:1045100043F60C42C4F20202536843F001035360B5
:1045200001601068C0070AD1106840070AD41068FB
:10453000C0064FF0020058BF032008BB04E0002073
:10454000F0B901E00120D8B94FF480111068C0071C
:104550000AD11068400709D41068C0064FF0020065
:1045600058BF032003E000BF002000E00120A1F1BC
:10457000010310B901291946E8D1002B08BF042016
:10458000516821F001015160704700002DE9F04FA2
:1045900083B0934688460446FFF7AAFF04F17840AB
:1045A00040F2FF71A446C30AC4F38807884340F26F
:1045B0002C74C7F5007600F10065C2F20004B34523
:1045C00038BF5E4630040CD0002000BF17FA80F1DF
:1045D00054F8211001311FD1013081B2B2B29142A1
:1045E000F4D31FFA86FABAF1000F37D0CDE9018370
:1045F000A8F10409D0466746CDF800C059F8041F59
:104600003846FFF785FFB8F1010807F10407F5D137
:10461000DDE900C821E000BF4FF0006000EBC320DF
:10462000E1460293FFF722FF1FFA86FA04EB8700A8
:104630000438A8F10401524651F8043F013A40F809
:10464000043FF9D1002700BFE159E819FFF760FFE7
:104650000437B7F5006FF7D1CC46029BB0B21FFA12
:104660008BF1814213D0ABEB060B1FFA8BF60133B3
:1046700008EB8A080CEB8A0CB6F5007F28BF4FF4D4
:10468000007605F50065002730049DD1A9E703B049
:10469000BDE8F04FFFF7E0BE10B582B00446B0F9B8
:1046A0000600B4F904204043216912FB02028A4249
:1046B000E2600DDD081A40000DF1060102F0D6F9A6
:1046C000B4F90400BDF80610002848BF4942A18093
:1046D00002B010BD0288B0F90230B0F904000A80BF
:1046E000181A44F6E6125043C00B48807047000089
:1046F0002DE9F04F84B040F65C724AF6AB270020FB
:10470000C2F200026FF00103CAF6AA27EA46ADF82A
:104710000C000290CDE90000A0FB076525F0030620
:10472000C6EB950632F826600AEB0305023301302A
:104730000C2B02F102026E80EED140F2601940F2C1
:10474000701E46F6174840F6747C4FF6C47B002274
:10475000C2F20009C2F2000EC1F2C168C2F2000C3E
:10476000C0F21D0B03E000BF0132082A21D0002552
:10477000022697B208E000BF30F8040C29F81200B6
:104780000236102E5D44EFD00AEB060030F8023CF2
:10479000BB42F5D10E2EEFD0E9083AF80630A1FB66
:1047A0000814A108002D2EF812302CF81210E3D1B5
:1047B000E6E740F62E7040F63E71C2F20000C2F20B
:1047C0000001023802396FF0010200BF023202EB31
:1047D0000C035B880A2AA3F6AA2703F6AA238F8074
:1047E000838000F1020001F10201EFD104B0BDE8C5
:1047F000F08F000010B5B0F90640B1F900C0B0F973
:1048000004E0B1F902200CFB04F302FB1E33DB0BC6
:104810000380B1F9001001FB0EF112FB0411C90B6A
:10482000418010BD4A68426048880A8810446FF38E
:10483000DF3008807047000010B5B0F91840B1F9BA
:1048400002C0B0F916E0B1F900200CFB04F312FB32
:104850000E33DB0B8383B1F90210624301FB1E218F
:10486000C90B418310BD000010B582B00269B0F9D8
:1048700006000C4600FB10200DF10601400002F07E
:10488000F5F8BDF9060041426182618C20828840C2
:104890004142C4E9020102B010BD00004FF6000021
:1048A000C0F60700007B704770B582B0082042F266
:1048B0000004C0F244000121C4F201040126FFF704
:1048C000DDF920460021FEF7F1FC0DF10105284637
:1048D000FEF7D2FC4FF40070ADF8010028468DF8C9
:1048E0000660FEF77FFC20460121FEF781FE204690
:1048F000112101220723FEF785FE20460021002218
:10490000FEF774FFA068C0071BD120460121FEF707
:10491000CDFC00BF20464021FEF7D2FC0028F9D094
:104920002046FEF74BFC00BF2046FEF74DFC00285A
:10493000FAD12046FEF74CFC2046FEF74FFC00283B
:10494000FAD120460421FEF7B7FC20460121FEF7EC
:1049500069FF00BF20460421FEF7B2FC0028F9D011
:1049600020460021FEF738FF054620460421FEF7C9
:10497000A3FC20460121FEF755FF00BF204604217D
:10498000FEF79EFC0028F9D020460421FEF794FC97
:1049900020460021FEF720FF0446FEF76FFE601957
:1049A00044F200014008C0F27411B1FBF0F041F68E
:1049B0002651C2F20001088002B070BD4FF6FF71AF
:1049C0004FF08072C0E90012704700000A88002A88
:1049D00008BF7047F0B500234FF0030C4FF0010EF5
:1049E000002405E0520804F1010403F1020327D07A
:1049F000D507F7D006680CFA03F5AE4306608E794A
:104A000007689E403E43066046680EFA04F7BE43C0
:104A100046600E794768A6403E4346608668AE43CE
:104A20008660CE7987689E403E438660C66826EAE7
:104A30000505C5604D79C6689D403543C560D1E721
:104A4000BDE8F0407047000000690840401AB0FA25
:104A500080F040097047000080B51C2303EA810301
:104A600002FA03FE24224FF00F0C082938BF20223F
:104A700081580CFA03F3994341EA0E01815080BD3D
:104A80002DE9F04104461646A28D006A884611467B
:104A9000FFF7DAFF626A218E07461046FFF7D4FF60
:104AA000A26AA18E05461046FFF7CEFF690001EB12
:104AB00087010144C8B236F910202170012A19DBA0
:104AC00040F67472C2F20002002832F810206FF033
:104AD000060050FA81F0B0FA80F04FEA50104FEA29
:104AE000401008BF202061700021A8F80020A1829A
:104AF000BDE8F0812020BDE8F081000040F668703C
:104B000040F26011C2F20000C2F20001016040F602
:104B1000847040F62E71C2F20000C2F20001016002
:104B200040F24450C2F20000FF2140F24C62017298
:104B300040F28040C2F20002C2F20000B2F914203A
:104B4000438C5242002102FA03F3C0E902130182AE
:104B50004282704740F6687040F27011C2F2000065
:104B6000C2F20001016040F6847040F63E7140F2EE
:104B70004C6240F28043C2F20000C2F20001C2F275
:104B80000002C2F20003016040F2445CB2F914205A
:104B9000588CC2F2000C01218CF8081002FA00F0C7
:104BA0000021C3E902011A825982704770B592F858
:104BB00000C0406833F91CE0B1F9003047F6FF75DA
:104BC000AEEB030414F5804F2346D8BF2B44B4F555
:104BD000804FA8BF631B002B1C46054648BF5C42A4
:104BE000002848BF4542B2F91C609269B54208DD11
:104BF00041F25556B44210D31FFA8EF30B800023B6
:104C00000BE040F6AA26B44207D340F67473C2F212
:104C1000000333F81C300B8000235043011401EBD8
:104C2000E07181EAE071594301EB4101C1F3CF31F9
:104C300001EB204000B270BD2DE9F04F81B040F291
:104C4000004BC4F2000B5846422102F073F90028D1
:104C50005DD05846522102F069F940F28816C2F23E
:104C600000067078002800F0BD8040F22410C2F2E7
:104C700000000788306BB18FFFF7E6FE726BB6F865
:104C8000401004461046FFF7DFFEB26BB6F8441042
:104C900005461046FFF7D8FE690001EB8401084481
:104CA0006FF0060252FA80F2B2FA82F2520940F232
:104CB000C063C1B25201C2F20003002908BF202222
:104CC0001D883A4042EA0507727C307491421F8089
:104CD00000F0BC813378032B40F0B881B6F90E3078
:104CE000052B00F3078140F66C77C2F200077D5C6C
:104CF00040F69074002DC2F2000418BF0125257003
:104D000000F0A7810021F18179603960B1E1584656
:104D1000102102F00FF9002800F098815846102168
:104D200002F004F940F22817C2F2000778683969E6
:104D300040F2445808444FF6FF71C2F2000888421E
:104D4000B8BF0146D8F8040079600028014648BF82
:104D500041429F2900F2BF8040F22410C2F20000BD
:104D6000B0F800A040F66870C2F200000468386A2B
:104D7000B98D4FF00009C8F80490A7F81490FFF718
:104D800063FE7A6A398E05461046FFF75DFEBA6A01
:104D9000B98E06461046FFF757FE710001EB8501FC
:104DA0000144CAB234F9120039700128C0F22581D9
:104DB0006FF0060050FA81F0B0FA80F0400940012F
:104DC000002A08BF2020797040F67471C2F20001F9
:104DD00031F8121041F29842C2F200021180A7F895
:104DE00014900BE140F2281A40F6987940F224180A
:104DF000C2F2000AC2F20009C2F20008DAF820008A
:104E0000BAF82C10D9F80040B8F80050FFF71CFE93
:104E1000DAF82420BAF8301006461046FFF714FEE0
:104E2000DAF82820BAF8341007461046FFF70CFECF
:104E3000790001EB860108446FF0060252FA80F215
:104E4000B2FA82F2520940F2C066C1B25201C2F215
:104E50000006002908BF202233882A401A43002C6C
:104E60008AF80000328051D040F67472C2F200021B
:104E700032F8112041F29843C2F200031A80012255
:104E8000C9F8002040F69472C2F20002B2F9003074
:104E900000279942AAF8147018D040F27017C2F295
:104EA000000737F91370B94210D040F26017C2F210
:104EB000000737F91330994208D09AF80110118091
:104EC00040F69271C2F2000101220A808AF80100C4
:104ED00001B0BDE8F08F40F28411C2F200010A78FF
:104EE000B7F9143010411341C8F804005000BB82D8
:104EF000087095E041F20247C2F2000737F812202D
:104F00008A4214BF0021591CF181B2E058460021A9
:104F100001F0C4FF40F66871C2F2000109689AF816
:104F200001209AF8007031F812109742CAF8080070
:104F30008AF8021059D01C2857D3C9B28F4240F0CA
:104F40009C80DAF8041040F2445608440021B0F581
:104F5000803FCAE9011024BF4FF6FF70CAF808006D
:104F6000C2F200067068002848BF40429F2806D859
:104F700040F28010C2F20000006801F0EFFC40F245
:104F80008010C2F200000068DAF8081000F080FF1C
:104F90004FF6B071C0F24F01B1FBF0F196F9082065
:104FA000CAF80C0001FB02F0DAF808107060480043
:104FB0004FF6FF72904240F6847038BF4A00CAF83C
:104FC0001020CBF84020C2F20000036841F2984163
:104FD000C2F2000130465246FFF7E8FD9AF8001091
:104FE000AAF814008AF801108DE0DAF804100844D9
:104FF000CAF8040001B0BDE8F08F202040F2C06183
:10500000C2F200010A8800EA0A00024340F280105E
:10501000C2F2000000680A8001F0A0FCC7F804900A
:10502000D8F8040040B140F28010C2F200000068DD
:10503000796800F02DFFF86038694FF6FF72410083
:10504000914238BF42003A61CBF8402001B0BDE840
:10505000F08F41F20245C2F2000525F8121040F629
:105060005072C2F2000222F813105A1CF28101227F
:105070007A54707401B0BDE8F08FB8F80040B9B34D
:10508000504601F041FC00EA040240F244503388EB
:10509000C2F2000041681A430029328048BF4942E9
:1050A000490918292AD89AF80010B94226D10024B3
:1050B00040F67472446040F28010C2F20002C2F204
:1050C000000032F8112041F298430068C2F2000358
:1050D0001A80AAF814408AF8011001F03FFC4FF63C
:1050E000FF70CAF81000CBF84000CAF804400AE08C
:1050F000308804F020010843308004E0DAE901013F
:105100000844CAF8040040F28410C2F200000121F1
:10511000017001B0BDE8F08F2DE9F04F85B040F28D
:105120008818C2F2000898F80000052800F298815B
:10513000DFE810F006003501D20009012F007F01E1
:1051400040F20040C4F2000050210022002401F08F
:10515000EBFF41F21040B8F80410C2F20000046006
:10516000C18040F62C70C2F200000124047001F0EE
:10517000B3FB41F6D240C2F20000B0F90000B8F92A
:105180000A108842C0F26C8188F8004005B0BDE882
:10519000F08F40F65C74C2F20004208840F6507133
:1051A00040F64E730022C2F20001C2F2000300BFBB
:1051B00031F81270874208BF1A700132062AF7D1FF
:1051C00018784AF6AB2501EB4001A21E6FF00103EF
:1051D000CAF6AA25A0FB057626F00307C7EB9607BB
:1051E00001EB87071F447F88023322F8027F0A2BD6
:1051F00000F10100EED14FF48070A8F8010000F03A
:1052000065F900210DF1040AADF810100391CDE904
:10521000011100BFA1FB052323F00302C2EB93029F
:1052200004EB820232F811202AF8112001310729FB
:10523000F0D140F2601940F2701E46F6174840F671
:10524000747C4FF6C47B0022C2F20009C2F2000E49
:10525000C1F2C168C2F2000CC0F21D0B03E000BF36
:105260000132082A21D00021022697B208E000BFAF
:1052700035F8040C29F812000236102E5944EFD0EC
:105280000AEB060535F8023CBB42F5D10E2EEFD0F5
:10529000C8083AF80630A0FB0804A00800292EF838
:1052A00012302CF81200E3D1E6E740F63E7140F6EA
:1052B0002E720120C2F20001C2F200023CF810304E
:1052C000A3F6AA2703F6AA2321F8107022F81030BB
:1052D00001300728F2D1BDE0B8F8040041F21041D6
:1052E000C2F20001B8F80820C88040F650704A8029
:1052F000C2F20000002101604160816041F2024081
:10530000C2F20000016041608160818140F66C70F2
:1053100040F20044C2F20000C4F2000441600160A7
:105320002046502101F002FE20465021012201F0CA
:10533000FBFE2046012101F0F1FD032088F800006A
:1053400005B0BDE8F08F41F6D240C2F20000B0F9DE
:10535000000042F210718842C0F28280B8F90E005B
:1053600005210B28C8BF042141F2104088F8001025
:10537000C2F200000021C180418001F0A5FA40F294
:105380000044C4F2000420465021002201F0CCFE6B
:105390002046002105B0BDE8F04F01F0BFBD40F24E
:1053A0002410C2F200000788D8F83000B8F83C108A
:1053B000FFF74AFBD8F83420B8F8401004461046EE
:1053C000FFF742FBD8F83820B8F8441005461046DD
:1053D000FFF73AFB690001EB840108446FF0060215
:1053E00052FA80F2B2FA82F25209C1B2520140F28C
:1053F000C063002908BF2022C2F200033A401F8880
:1054000088F810003A431A8040F65C72C2F200023B
:1054100088F8110041F210401180C2F20000002112
:10542000C180022088F80000A8F80E1005B0BDE881
:10543000F08F40F22410C2F2000040F2C0610088F8
:10544000C2F200010A8800F08000104308800020AA
:10545000A8F8010040F2C260C2F20000052101700C
:1054600005B0BDE8F08F0000B0B503780988B0F949
:1054700014E032F8132071446FF3DF316FF3DF3241
:105480008A1A4CF2020413B2CFF6FF74A3421446F8
:1054900047F6FF7CB8BF644443F6FE75AB42C8BF15
:1054A000A2EB0C04B0F91EC0BEF1010F22B2A8BFDE
:1054B000624506DABEF1FF3F05DCCCF100039A42FB
:1054C00001DC002282820846B0BD0000F0B585B044
:1054D00001240020C0F23004CDE9020004F5801060
:1054E00001210127FEF7CAFB20460121FEF7C6FB7A
:1054F00020460121FEF7C2FB20460121FEF7BEFB3C
:1055000002AE3046FFF75AFA40F200441020C4F2CF
:10551000000402904FF0817004F500350390284696
:105520003146FFF753FA2020029028463146FFF714
:105530004DFA284631460297FFF748FA28460421DB
:105540000222FFF789FA284605210222FFF784FA92
:10555000284600210222FFF77FFA20464FF6FF710E
:1055600040F2B75201F0F0FB2046002101F0CCFCE4
:105570002046012101F0BEFC01AD284601F0D0FD1E
:105580000020C0F20360019020462946002201F06D
:10559000D7FC2046012101F023FC2046042101F024
:1055A000F7FF2046042101F0EDFF2046512101F0D4
:1055B000BDFC20465021012201F0B6FD204601210C
:1055C00001F0ACFC05B0F0BD70B540F61805002444
:1055D000C4F202054FF480464FF4FA702E6100F0D9
:1055E00035F94FF4FA702E6000F030F9022C04F116
:1055F0000104F1D370BD000080B500F015F840F64D
:105600001800C4F202004FF4005101604FF48041D1
:1056100001604FF4004101604FF60041CFF6FF7189
:105620004FF40072425080BDB0B582B00224C0F287
:10563000300420460121FEF721FB20460121FEF720
:105640001DFB20460121FEF719FB601E0121FEF71C
:1056500015FB6C462046FFF7B1F90020C0F201109F
:1056600040F6000501904FF40050C4F2020500908E
:1056700028462146FFF7AAF94FF4804000902846BB
:105680002146FFF7A3F94FF4004000902846214639
:10569000FFF79CF94FF400700090A5F5806021465B
:1056A000FFF794F902B0B0BD816170478162704725
:1056B00001F080FA01F04CF901F024FB00F0AAF8A7
:1056C000FEF72CF9FFF798FF00F008FCFDF780FECD
:1056D000FDF7D4FFFFF7E8F801F006FE01F0A6F9A8
:1056E000FFF7F4FE00F03CFA40F29C60C2F20000CA
:1056F000FEF736FA40F21C60C2F2000001F05EFFD5
:10570000FEF7ACFD01F0B4FF4FF4FA7000F09EF824
:1057100040F20C54C2F200042046FEF70BFE204675
:10572000FEF7FCFD40F25C00C2F20000FBF7B2FBAA
:1057300040F2B061C2F200010870FFF7AFF840F22A
:105740002871C2F20001087000F092F841F236416F
:10575000C2F20001087000F0A7FFFFF735FF40F22A
:10576000881940F2AD6640F2AE6740F2C26540F281
:10577000261440F2E04B9FED268A40F2AC6AC2F25A
:1057800000094FF00008C2F20006C2F20007C2F2A0
:105790000005C2F20004C2F2000BC2F2000A00BF10
:1057A00099F80200012803D102F026F989F8028055
:1057B00030783978884221D000F00CFC307841F6FE
:1057C000D0410628C2F2000181F8008013D1DBF835
:1057D0000C1000EE101AB8EEC00ACBE90011CBF89D
:1057E000081020EE080A40F28861BDEEC00AC2F23D
:1057F000000181ED000A8AF80000387028782178CD
:105800008842CDD0FBF738F928782070C8E700BF70
:1058100000A08C3E40F21460C2F2000000684DF619
:105820008361C4F21B31A0FB0101880C40F2EC61E2
:10583000C2F20001086008684FF47A71484340F2F0
:10584000E861C2F200010860704700004EF21001EA
:10585000CEF200018A680B6830B100BF0B68DB0331
:10586000FCD501380304F9D188689042FCD8704710
:105870002DE9F041FDF7DCF8012803D0FDF7B8F879
:105880000128FBD14FF60000C0F6070040F2BA6CC9
:10589000D0E90423C2F2000CACF8002040F2BC6254
:1058A000C2F20002D0E9061E138040F2B862C2F2D2
:1058B0000002118040F2C261C2F20001D0E9084545
:1058C00081F800E040F2AD61C2F200010C7040F2DC
:1058D000AF61C2F200010D70D0E90B25D0E90D4196
:1058E00041F26843C2F200035D801C84D0F890400E
:1058F00040F25C08D0F89450C2F200085984A8F82D
:1059000042401C82A8F844505D828C4005FA01F1A7
:1059100000F140051A80C3E902413ACD40F28046C9
:10592000C2F20006318040F24C61C2F20001738085
:10593000B1F914303484AB405C427584B1F916106F
:10594000C6E9023400F1540678CE40F25047C2F264
:105950000007B1403B804B4241F6C44EC7E90213F9
:10596000D0E92213C2F2000E7C803D847E8400F1D7
:10597000A807AEF80810AEF80A308ACF40F2F066F9
:10598000C2F200063180794273807182D0E95413EB
:10599000F787318407FA03F149427384F160B0F963
:1059A000B81040F28053C2F20003D0E93165D960EB
:1059B000D0E92F17D0E93342A3F8785048F2010517
:1059C000998247F6FF71CFF6FF754FF0000CA3F8F0
:1059D0007A40A14005FA04F4CEF800C0D0F8D4E033
:1059E000C3E9181441F21041C2F20001A3F8587043
:1059F000A3F85A608A80A1F802E0B0F8D81040F20B
:105A0000C403C2F20003A3F848104900A3F84A10E7
:105A1000D0E93712D0F840619960D0E96B17D0F81F
:105A20004C41D975D0F810129F75A3F85E1040F262
:105A3000C061C2F200010A80D0F8381140F2605211
:105A400040F23047C2F20002C2F200071180118911
:105A50003F68A8F81EC07943B1FBF6F1D0F8446165
:105A6000D18006FB07F144F6D356C1F2620651FB22
:105A700006F18D1105EBD1716743D160D0F860114B
:105A800057FB06F7BE119182D0F8141206EBD777B8
:105A90001761D0F87471518040F28861C2F2000140
:105AA000DF62C1F800C0D0F88C1141F23842B0F882
:105AB0009031C2F2000200F5CA7711805380D3847E
:105AC0008ACFD0E968651185D0F880109380118263
:105AD0004B42B14053824B42178456849584C2E9AD
